{
  "address": "0x5FbDB2315678afecb367f032d93F642f64180aa3",
  "abi": [
    {
      "inputs": [
        {
          "internalType": "string",
          "name": "_name",
          "type": "string"
        },
        {
          "internalType": "string",
          "name": "_symbol",
          "type": "string"
        }
      ],
      "stateMutability": "nonpayable",
      "type": "constructor"
    },
    {
      "inputs": [
        {
          "internalType": "address",
          "name": "sender",
          "type": "address"
        },
        {
          "internalType": "uint256",
          "name": "tokenId",
          "type": "uint256"
        },
        {
          "internalType": "address",
          "name": "owner",
          "type": "address"
        }
      ],
      "name": "ERC721IncorrectOwner",
      "type": "error"
    },
    {
      "inputs": [
        {
          "internalType": "address",
          "name": "operator",
          "type": "address"
        },
        {
          "internalType": "uint256",
          "name": "tokenId",
          "type": "uint256"
        }
      ],
      "name": "ERC721InsufficientApproval",
      "type": "error"
    },
    {
      "inputs": [
        {
          "internalType": "address",
          "name": "approver",
          "type": "address"
        }
      ],
      "name": "ERC721InvalidApprover",
      "type": "error"
    },
    {
      "inputs": [
        {
          "internalType": "address",
          "name": "operator",
          "type": "address"
        }
      ],
      "name": "ERC721InvalidOperator",
      "type": "error"
    },
    {
      "inputs": [
        {
          "internalType": "address",
          "name": "owner",
          "type": "address"
        }
      ],
      "name": "ERC721InvalidOwner",
      "type": "error"
    },
    {
      "inputs": [
        {
          "internalType": "address",
          "name": "receiver",
          "type": "address"
        }
      ],
      "name": "ERC721InvalidReceiver",
      "type": "error"
    },
    {
      "inputs": [
        {
          "internalType": "address",
          "name": "sender",
          "type": "address"
        }
      ],
      "name": "ERC721InvalidSender",
      "type": "error"
    },
    {
      "inputs": [
        {
          "internalType": "uint256",
          "name": "tokenId",
          "type": "uint256"
        }
      ],
      "name": "ERC721NonexistentToken",
      "type": "error"
    },
    {
      "anonymous": false,
      "inputs": [
        {
          "indexed": true,
          "internalType": "address",
          "name": "owner",
          "type": "address"
        },
        {
          "indexed": true,
          "internalType": "address",
          "name": "approved",
          "type": "address"
        },
        {
          "indexed": true,
          "internalType": "uint256",
          "name": "tokenId",
          "type": "uint256"
        }
      ],
      "name": "Approval",
      "type": "event"
    },
    {
      "anonymous": false,
      "inputs": [
        {
          "indexed": true,
          "internalType": "address",
          "name": "owner",
          "type": "address"
        },
        {
          "indexed": true,
          "internalType": "address",
          "name": "operator",
          "type": "address"
        },
        {
          "indexed": false,
          "internalType": "bool",
          "name": "approved",
          "type": "bool"
        }
      ],
      "name": "ApprovalForAll",
      "type": "event"
    },
    {
      "anonymous": false,
      "inputs": [
        {
          "indexed": true,
          "internalType": "address",
          "name": "from",
          "type": "address"
        },
        {
          "indexed": true,
          "internalType": "address",
          "name": "to",
          "type": "address"
        },
        {
          "indexed": true,
          "internalType": "uint256",
          "name": "tokenId",
          "type": "uint256"
        }
      ],
      "name": "Transfer",
      "type": "event"
    },
    {
      "inputs": [
        {
          "internalType": "address",
          "name": "to",
          "type": "address"
        },
        {
          "internalType": "uint256",
          "name": "tokenId",
          "type": "uint256"
        }
      ],
      "name": "approve",
      "outputs": [],
      "stateMutability": "nonpayable",
      "type": "function"
    },
    {
      "inputs": [
        {
          "internalType": "address",
          "name": "owner",
          "type": "address"
        }
      ],
      "name": "balanceOf",
      "outputs": [
        {
          "internalType": "uint256",
          "name": "",
          "type": "uint256"
        }
      ],
      "stateMutability": "view",
      "type": "function"
    },
    {
      "inputs": [
        {
          "internalType": "uint256",
          "name": "tokenId",
          "type": "uint256"
        }
      ],
      "name": "getApproved",
      "outputs": [
        {
          "internalType": "address",
          "name": "",
          "type": "address"
        }
      ],
      "stateMutability": "view",
      "type": "function"
    },
    {
      "inputs": [],
      "name": "getTokenCounter",
      "outputs": [
        {
          "internalType": "uint256",
          "name": "",
          "type": "uint256"
        }
      ],
      "stateMutability": "view",
      "type": "function"
    },
    {
      "inputs": [
        {
          "internalType": "address",
          "name": "owner",
          "type": "address"
        },
        {
          "internalType": "address",
          "name": "operator",
          "type": "address"
        }
      ],
      "name": "isApprovedForAll",
      "outputs": [
        {
          "internalType": "bool",
          "name": "",
          "type": "bool"
        }
      ],
      "stateMutability": "view",
      "type": "function"
    },
    {
      "inputs": [],
      "name": "mintDOG",
      "outputs": [
        {
          "internalType": "uint256",
          "name": "",
          "type": "uint256"
        }
      ],
      "stateMutability": "nonpayable",
      "type": "function"
    },
    {
      "inputs": [],
      "name": "name",
      "outputs": [
        {
          "internalType": "string",
          "name": "",
          "type": "string"
        }
      ],
      "stateMutability": "view",
      "type": "function"
    },
    {
      "inputs": [
        {
          "internalType": "uint256",
          "name": "tokenId",
          "type": "uint256"
        }
      ],
      "name": "ownerOf",
      "outputs": [
        {
          "internalType": "address",
          "name": "",
          "type": "address"
        }
      ],
      "stateMutability": "view",
      "type": "function"
    },
    {
      "inputs": [
        {
          "internalType": "address",
          "name": "from",
          "type": "address"
        },
        {
          "internalType": "address",
          "name": "to",
          "type": "address"
        },
        {
          "internalType": "uint256",
          "name": "tokenId",
          "type": "uint256"
        }
      ],
      "name": "safeTransferFrom",
      "outputs": [],
      "stateMutability": "nonpayable",
      "type": "function"
    },
    {
      "inputs": [
        {
          "internalType": "address",
          "name": "from",
          "type": "address"
        },
        {
          "internalType": "address",
          "name": "to",
          "type": "address"
        },
        {
          "internalType": "uint256",
          "name": "tokenId",
          "type": "uint256"
        },
        {
          "internalType": "bytes",
          "name": "data",
          "type": "bytes"
        }
      ],
      "name": "safeTransferFrom",
      "outputs": [],
      "stateMutability": "nonpayable",
      "type": "function"
    },
    {
      "inputs": [
        {
          "internalType": "address",
          "name": "operator",
          "type": "address"
        },
        {
          "internalType": "bool",
          "name": "approved",
          "type": "bool"
        }
      ],
      "name": "setApprovalForAll",
      "outputs": [],
      "stateMutability": "nonpayable",
      "type": "function"
    },
    {
      "inputs": [
        {
          "internalType": "bytes4",
          "name": "interfaceId",
          "type": "bytes4"
        }
      ],
      "name": "supportsInterface",
      "outputs": [
        {
          "internalType": "bool",
          "name": "",
          "type": "bool"
        }
      ],
      "stateMutability": "view",
      "type": "function"
    },
    {
      "inputs": [],
      "name": "symbol",
      "outputs": [
        {
          "internalType": "string",
          "name": "",
          "type": "string"
        }
      ],
      "stateMutability": "view",
      "type": "function"
    },
    {
      "inputs": [],
      "name": "tokenURI",
      "outputs": [
        {
          "internalType": "string",
          "name": "",
          "type": "string"
        }
      ],
      "stateMutability": "pure",
      "type": "function"
    },
    {
      "inputs": [
        {
          "internalType": "uint256",
          "name": "tokenId",
          "type": "uint256"
        }
      ],
      "name": "tokenURI",
      "outputs": [
        {
          "internalType": "string",
          "name": "",
          "type": "string"
        }
      ],
      "stateMutability": "view",
      "type": "function"
    },
    {
      "inputs": [
        {
          "internalType": "address",
          "name": "from",
          "type": "address"
        },
        {
          "internalType": "address",
          "name": "to",
          "type": "address"
        },
        {
          "internalType": "uint256",
          "name": "tokenId",
          "type": "uint256"
        }
      ],
      "name": "transferFrom",
      "outputs": [],
      "stateMutability": "nonpayable",
      "type": "function"
    }
  ],
  "transactionHash": "0x0ebc8508f224ed5134f2169acb15afaee61284da5deaba42f320a00646094ac7",
  "args": [
    "Pugie",
    "PUG"
  ],
  "numDeployments": 1,
  "solcInputHash": "0f7e4cea3a4ef808112d578c467d2320",
  "bytecode": "0x60806040523480156200001157600080fd5b5060405162002e2f38038062002e2f833981810160405281019062000037919062000202565b818181600090816200004a9190620004d2565b5080600190816200005c9190620004d2565b50505060006006819055505050620005b9565b6000604051905090565b600080fd5b600080fd5b600080fd5b600080fd5b6000601f19601f8301169050919050565b7f4e487b7100000000000000000000000000000000000000000000000000000000600052604160045260246000fd5b620000d8826200008d565b810181811067ffffffffffffffff82111715620000fa57620000f96200009e565b5b80604052505050565b60006200010f6200006f565b90506200011d8282620000cd565b919050565b600067ffffffffffffffff82111562000140576200013f6200009e565b5b6200014b826200008d565b9050602081019050919050565b60005b83811015620001785780820151818401526020810190506200015b565b60008484015250505050565b60006200019b620001958462000122565b62000103565b905082815260208101848484011115620001ba57620001b962000088565b5b620001c784828562000158565b509392505050565b600082601f830112620001e757620001e662000083565b5b8151620001f984826020860162000184565b91505092915050565b600080604083850312156200021c576200021b62000079565b5b600083015167ffffffffffffffff8111156200023d576200023c6200007e565b5b6200024b85828601620001cf565b925050602083015167ffffffffffffffff8111156200026f576200026e6200007e565b5b6200027d85828601620001cf565b9150509250929050565b600081519050919050565b7f4e487b7100000000000000000000000000000000000000000000000000000000600052602260045260246000fd5b60006002820490506001821680620002da57607f821691505b602082108103620002f057620002ef62000292565b5b50919050565b60008190508160005260206000209050919050565b60006020601f8301049050919050565b600082821b905092915050565b6000600883026200035a7fffffffffffffffffffffffffffffffffffffffffffffffffffffffffffffffff826200031b565b6200036686836200031b565b95508019841693508086168417925050509392505050565b6000819050919050565b6000819050919050565b6000620003b3620003ad620003a7846200037e565b62000388565b6200037e565b9050919050565b6000819050919050565b620003cf8362000392565b620003e7620003de82620003ba565b84845462000328565b825550505050565b600090565b620003fe620003ef565b6200040b818484620003c4565b505050565b5b81811015620004335762000427600082620003f4565b60018101905062000411565b5050565b601f82111562000482576200044c81620002f6565b62000457846200030b565b8101602085101562000467578190505b6200047f62000476856200030b565b83018262000410565b50505b505050565b600082821c905092915050565b6000620004a76000198460080262000487565b1980831691505092915050565b6000620004c2838362000494565b9150826002028217905092915050565b620004dd8262000287565b67ffffffffffffffff811115620004f957620004f86200009e565b5b620005058254620002c1565b6200051282828562000437565b600060209050601f8311600181146200054a576000841562000535578287015190505b620005418582620004b4565b865550620005b1565b601f1984166200055a86620002f6565b60005b8281101562000584578489015182556001820191506020850194506020810190506200055d565b86831015620005a45784890151620005a0601f89168262000494565b8355505b6001600288020188555050505b505050505050565b61286680620005c96000396000f3fe608060405234801561001057600080fd5b50600436106101005760003560e01c80636352211e11610097578063a22cb46511610066578063a22cb465146102af578063b88d4fde146102cb578063c87b56dd146102e7578063e985e9c51461031757610100565b80636352211e146102135780636e02007d1461024357806370a082311461026157806395d89b411461029157610100565b806323b872dd116100d357806323b872dd1461019f5780633c130d90146101bb57806342842e0e146101d95780635b9dcc47146101f557610100565b806301ffc9a71461010557806306fdde0314610135578063081812fc14610153578063095ea7b314610183575b600080fd5b61011f600480360381019061011a9190611aeb565b610347565b60405161012c9190611b33565b60405180910390f35b61013d610429565b60405161014a9190611bde565b60405180910390f35b61016d60048036038101906101689190611c36565b6104bb565b60405161017a9190611ca4565b60405180910390f35b61019d60048036038101906101989190611ceb565b6104d7565b005b6101b960048036038101906101b49190611d2b565b6104ed565b005b6101c3610664565b6040516101d09190611bde565b60405180910390f35b6101f360048036038101906101ee9190611d2b565b610684565b005b6101fd6106a4565b60405161020a9190611d8d565b60405180910390f35b61022d60048036038101906102289190611c36565b6106d4565b60405161023a9190611ca4565b60405180910390f35b61024b6106e6565b6040516102589190611d8d565b60405180910390f35b61027b60048036038101906102769190611da8565b6106f0565b6040516102889190611d8d565b60405180910390f35b6102996107a7565b6040516102a69190611bde565b60405180910390f35b6102c960048036038101906102c49190611e01565b610839565b005b6102e560048036038101906102e09190611f76565b61084f565b005b61030160048036038101906102fc9190611c36565b61086c565b60405161030e9190611bde565b60405180910390f35b610331600480360381019061032c9190611ff9565b6108d5565b60405161033e9190611b33565b60405180910390f35b60007f80ac58cd000000000000000000000000000000000000000000000000000000007bffffffffffffffffffffffffffffffffffffffffffffffffffffffff1916827bffffffffffffffffffffffffffffffffffffffffffffffffffffffff1916148061041257507f5b5e139f000000000000000000000000000000000000000000000000000000007bffffffffffffffffffffffffffffffffffffffffffffffffffffffff1916827bffffffffffffffffffffffffffffffffffffffffffffffffffffffff1916145b806104225750610421826109e7565b5b9050919050565b60606000805461043890612068565b80601f016020809104026020016040519081016040528092919081815260200182805461046490612068565b80156104b15780601f10610486576101008083540402835291602001916104b1565b820191906000526020600020905b81548152906001019060200180831161049457829003601f168201915b5050505050905090565b60006104c682610a51565b506104d082610ad7565b9050919050565b6104e982826104e4610b14565b610b1c565b5050565b600073ffffffffffffffffffffffffffffffffffffffff168273ffffffffffffffffffffffffffffffffffffffff160361055c576040517f08c379a0000000000000000000000000000000000000000000000000000000008152600401610553906120e5565b60405180910390fd5b6000610570838361056b610b14565b610b2e565b90506105b281856040518060400160405280600681526020017f594f4f4f4f4f0000000000000000000000000000000000000000000000000000815250610d48565b8373ffffffffffffffffffffffffffffffffffffffff168173ffffffffffffffffffffffffffffffffffffffff161461065e576106236040518060400160405280601681526020017f4552524f52204e4f575757575757575757572e2e2e0a00000000000000000000815250610de6565b6040517f08c379a000000000000000000000000000000000000000000000000000000000815260040161065590612151565b60405180910390fd5b50505050565b60606040518060800160405280604a81526020016127e7604a9139905090565b61069f8383836040518060200160405280600081525061084f565b505050565b60006106b233600654610e7f565b6001600660008282546106c591906121a0565b92505081905550600654905090565b60006106df82610a51565b9050919050565b6000600654905090565b60008073ffffffffffffffffffffffffffffffffffffffff168273ffffffffffffffffffffffffffffffffffffffff1603610760576040517f08c379a000000000000000000000000000000000000000000000000000000000815260040161075790612220565b60405180910390fd5b600360008373ffffffffffffffffffffffffffffffffffffffff1673ffffffffffffffffffffffffffffffffffffffff168152602001908152602001600020549050919050565b6060600180546107b690612068565b80601f01602080910402602001604051908101604052809291908181526020018280546107e290612068565b801561082f5780601f106108045761010080835404028352916020019161082f565b820191906000526020600020905b81548152906001019060200180831161081257829003601f168201915b5050505050905090565b61084b610844610b14565b8383610e9d565b5050565b61085a8484846104ed565b6108668484848461100a565b50505050565b606061087782610a51565b5060006108826111bd565b905060008151116108a257604051806020016040528060008152506108cd565b806108ac846111d4565b6040516020016108bd92919061227c565b6040516020818303038152906040525b915050919050565b60006109166040518060400160405280601081526020017f3d3d3d3d3d3d3d3d3d3d3d3d3d3d3d3d00000000000000000000000000000000815250846112a2565b6109556040518060400160405280601081526020017f3d3d3d3d3d3d3d3d3d3d3d3d3d3d3d3d00000000000000000000000000000000815250836112a2565b600560008473ffffffffffffffffffffffffffffffffffffffff1673ffffffffffffffffffffffffffffffffffffffff16815260200190815260200160002060008373ffffffffffffffffffffffffffffffffffffffff1673ffffffffffffffffffffffffffffffffffffffff16815260200190815260200160002060009054906101000a900460ff16905092915050565b60007f01ffc9a7000000000000000000000000000000000000000000000000000000007bffffffffffffffffffffffffffffffffffffffffffffffffffffffff1916827bffffffffffffffffffffffffffffffffffffffffffffffffffffffff1916149050919050565b600080610a5d8361133e565b9050600073ffffffffffffffffffffffffffffffffffffffff168173ffffffffffffffffffffffffffffffffffffffff1603610ace576040517f08c379a0000000000000000000000000000000000000000000000000000000008152600401610ac5906122ec565b60405180910390fd5b80915050919050565b60006004600083815260200190815260200160002060009054906101000a900473ffffffffffffffffffffffffffffffffffffffff169050919050565b600033905090565b610b29838383600161137b565b505050565b600080610b3a8461133e565b9050600073ffffffffffffffffffffffffffffffffffffffff168373ffffffffffffffffffffffffffffffffffffffff1614610b7c57610b7b81848661153e565b5b600073ffffffffffffffffffffffffffffffffffffffff168173ffffffffffffffffffffffffffffffffffffffff1614610c0d57610bbe60008560008061137b565b6001600360008373ffffffffffffffffffffffffffffffffffffffff1673ffffffffffffffffffffffffffffffffffffffff168152602001908152602001600020600082825403925050819055505b600073ffffffffffffffffffffffffffffffffffffffff168573ffffffffffffffffffffffffffffffffffffffff1614610c90576001600360008773ffffffffffffffffffffffffffffffffffffffff1673ffffffffffffffffffffffffffffffffffffffff168152602001908152602001600020600082825401925050819055505b846002600086815260200190815260200160002060006101000a81548173ffffffffffffffffffffffffffffffffffffffff021916908373ffffffffffffffffffffffffffffffffffffffff160217905550838573ffffffffffffffffffffffffffffffffffffffff168273ffffffffffffffffffffffffffffffffffffffff167fddf252ad1be2c89b69c2b068fc378daa952ba7f163c4a11628f55a4df523b3ef60405160405180910390a4809150509392505050565b610de1838383604051602401610d609392919061230c565b6040516020818303038152906040527e7150be000000000000000000000000000000000000000000000000000000007bffffffffffffffffffffffffffffffffffffffffffffffffffffffff19166020820180517bffffffffffffffffffffffffffffffffffffffffffffffffffffffff8381831617835250505050611670565b505050565b610e7c81604051602401610dfa9190611bde565b6040516020818303038152906040527f41304fac000000000000000000000000000000000000000000000000000000007bffffffffffffffffffffffffffffffffffffffffffffffffffffffff19166020820180517bffffffffffffffffffffffffffffffffffffffffffffffffffffffff8381831617835250505050611670565b50565b610e9982826040518060200160405280600081525061168a565b5050565b600073ffffffffffffffffffffffffffffffffffffffff168273ffffffffffffffffffffffffffffffffffffffff1603610f0c576040517f08c379a0000000000000000000000000000000000000000000000000000000008152600401610f0390612396565b60405180910390fd5b80600560008573ffffffffffffffffffffffffffffffffffffffff1673ffffffffffffffffffffffffffffffffffffffff16815260200190815260200160002060008473ffffffffffffffffffffffffffffffffffffffff1673ffffffffffffffffffffffffffffffffffffffff16815260200190815260200160002060006101000a81548160ff0219169083151502179055508173ffffffffffffffffffffffffffffffffffffffff168373ffffffffffffffffffffffffffffffffffffffff167f17307eab39ab6107e8899845ad3d59bd9653f200f220920489ca2b5937696c3183604051610ffd9190611b33565b60405180910390a3505050565b60008373ffffffffffffffffffffffffffffffffffffffff163b11156111b7578273ffffffffffffffffffffffffffffffffffffffff1663150b7a0261104e610b14565b8685856040518563ffffffff1660e01b8152600401611070949392919061240b565b6020604051808303816000875af19250505080156110ac57506040513d601f19601f820116820180604052508101906110a9919061246c565b60015b61112e573d80600081146110dc576040519150601f19603f3d011682016040523d82523d6000602084013e6110e1565b606091505b506000815103611126576040517f08c379a000000000000000000000000000000000000000000000000000000000815260040161111d906124e5565b60405180910390fd5b805181602001fd5b63150b7a0260e01b7bffffffffffffffffffffffffffffffffffffffffffffffffffffffff1916817bffffffffffffffffffffffffffffffffffffffffffffffffffffffff1916146111b5576040517f08c379a00000000000000000000000000000000000000000000000000000000081526004016111ac90612551565b60405180910390fd5b505b50505050565b606060405180602001604052806000815250905090565b6060600060016111e3846116a6565b01905060008167ffffffffffffffff81111561120257611201611e4b565b5b6040519080825280601f01601f1916602001820160405280156112345781602001600182028036833780820191505090505b509050600082602001820190505b600115611297578080600190039150507f3031323334353637383961626364656600000000000000000000000000000000600a86061a8153600a858161128b5761128a612571565b5b04945060008503611242575b819350505050919050565b61133a82826040516024016112b89291906125a0565b6040516020818303038152906040527f319af333000000000000000000000000000000000000000000000000000000007bffffffffffffffffffffffffffffffffffffffffffffffffffffffff19166020820180517bffffffffffffffffffffffffffffffffffffffffffffffffffffffff8381831617835250505050611670565b5050565b60006002600083815260200190815260200160002060009054906101000a900473ffffffffffffffffffffffffffffffffffffffff169050919050565b80806113b45750600073ffffffffffffffffffffffffffffffffffffffff168273ffffffffffffffffffffffffffffffffffffffff1614155b156114e65760006113c484610a51565b9050600073ffffffffffffffffffffffffffffffffffffffff168373ffffffffffffffffffffffffffffffffffffffff161415801561142f57508273ffffffffffffffffffffffffffffffffffffffff168173ffffffffffffffffffffffffffffffffffffffff1614155b8015611442575061144081846108d5565b155b15611482576040517f08c379a00000000000000000000000000000000000000000000000000000000081526004016114799061261c565b60405180910390fd5b81156114e457838573ffffffffffffffffffffffffffffffffffffffff168273ffffffffffffffffffffffffffffffffffffffff167f8c5be1e5ebec7d5bd14f71427d1e84f3dd0314c0f7b2291e5b200ac8c7c3b92560405160405180910390a45b505b836004600085815260200190815260200160002060006101000a81548173ffffffffffffffffffffffffffffffffffffffff021916908373ffffffffffffffffffffffffffffffffffffffff16021790555050505050565b6115b26040518060400160405280601081526020017f3d3d3d3d3d3d3d3d3d3d3d3d3d3d3d3d000000000000000000000000000000008152506040518060400160405280601781526020017f54494c4c204845524545454545454545454545454545450000000000000000008152506117f9565b6115bd838383611895565b61166b57600073ffffffffffffffffffffffffffffffffffffffff168373ffffffffffffffffffffffffffffffffffffffff1603611630576040517f08c379a000000000000000000000000000000000000000000000000000000000815260040161162790612688565b60405180910390fd5b6040517f08c379a0000000000000000000000000000000000000000000000000000000008152600401611662906126f4565b60405180910390fd5b505050565b6116878161167f611956611977565b63ffffffff16565b50565b6116948383611982565b6116a1600084848461100a565b505050565b600080600090507a184f03e93ff9f4daa797ed6e38ed64bf6a1f0100000000000000008310611704577a184f03e93ff9f4daa797ed6e38ed64bf6a1f01000000000000000083816116fa576116f9612571565b5b0492506040810190505b6d04ee2d6d415b85acef81000000008310611741576d04ee2d6d415b85acef8100000000838161173757611736612571565b5b0492506020810190505b662386f26fc10000831061177057662386f26fc10000838161176657611765612571565b5b0492506010810190505b6305f5e1008310611799576305f5e100838161178f5761178e612571565b5b0492506008810190505b61271083106117be5761271083816117b4576117b3612571565b5b0492506004810190505b606483106117e157606483816117d7576117d6612571565b5b0492506002810190505b600a83106117f0576001810190505b80915050919050565b611891828260405160240161180f929190612714565b6040516020818303038152906040527f4b5c4277000000000000000000000000000000000000000000000000000000007bffffffffffffffffffffffffffffffffffffffffffffffffffffffff19166020820180517bffffffffffffffffffffffffffffffffffffffffffffffffffffffff8381831617835250505050611670565b5050565b60008073ffffffffffffffffffffffffffffffffffffffff168373ffffffffffffffffffffffffffffffffffffffff161415801561194d57508273ffffffffffffffffffffffffffffffffffffffff168473ffffffffffffffffffffffffffffffffffffffff16148061190e575061190d84846108d5565b5b8061194c57508273ffffffffffffffffffffffffffffffffffffffff1661193483610ad7565b73ffffffffffffffffffffffffffffffffffffffff16145b5b90509392505050565b60006a636f6e736f6c652e6c6f679050600080835160208501845afa505050565b611a75819050919050565b600073ffffffffffffffffffffffffffffffffffffffff168273ffffffffffffffffffffffffffffffffffffffff16036119f1576040517f08c379a00000000000000000000000000000000000000000000000000000000081526004016119e8906126f4565b60405180910390fd5b60006119ff83836000610b2e565b9050600073ffffffffffffffffffffffffffffffffffffffff168173ffffffffffffffffffffffffffffffffffffffff1614611a70576040517f08c379a0000000000000000000000000000000000000000000000000000000008152600401611a6790612797565b60405180910390fd5b505050565b611a7d6127b7565b565b6000604051905090565b600080fd5b600080fd5b60007fffffffff0000000000000000000000000000000000000000000000000000000082169050919050565b611ac881611a93565b8114611ad357600080fd5b50565b600081359050611ae581611abf565b92915050565b600060208284031215611b0157611b00611a89565b5b6000611b0f84828501611ad6565b91505092915050565b60008115159050919050565b611b2d81611b18565b82525050565b6000602082019050611b486000830184611b24565b92915050565b600081519050919050565b600082825260208201905092915050565b60005b83811015611b88578082015181840152602081019050611b6d565b60008484015250505050565b6000601f19601f8301169050919050565b6000611bb082611b4e565b611bba8185611b59565b9350611bca818560208601611b6a565b611bd381611b94565b840191505092915050565b60006020820190508181036000830152611bf88184611ba5565b905092915050565b6000819050919050565b611c1381611c00565b8114611c1e57600080fd5b50565b600081359050611c3081611c0a565b92915050565b600060208284031215611c4c57611c4b611a89565b5b6000611c5a84828501611c21565b91505092915050565b600073ffffffffffffffffffffffffffffffffffffffff82169050919050565b6000611c8e82611c63565b9050919050565b611c9e81611c83565b82525050565b6000602082019050611cb96000830184611c95565b92915050565b611cc881611c83565b8114611cd357600080fd5b50565b600081359050611ce581611cbf565b92915050565b60008060408385031215611d0257611d01611a89565b5b6000611d1085828601611cd6565b9250506020611d2185828601611c21565b9150509250929050565b600080600060608486031215611d4457611d43611a89565b5b6000611d5286828701611cd6565b9350506020611d6386828701611cd6565b9250506040611d7486828701611c21565b9150509250925092565b611d8781611c00565b82525050565b6000602082019050611da26000830184611d7e565b92915050565b600060208284031215611dbe57611dbd611a89565b5b6000611dcc84828501611cd6565b91505092915050565b611dde81611b18565b8114611de957600080fd5b50565b600081359050611dfb81611dd5565b92915050565b60008060408385031215611e1857611e17611a89565b5b6000611e2685828601611cd6565b9250506020611e3785828601611dec565b9150509250929050565b600080fd5b600080fd5b7f4e487b7100000000000000000000000000000000000000000000000000000000600052604160045260246000fd5b611e8382611b94565b810181811067ffffffffffffffff82111715611ea257611ea1611e4b565b5b80604052505050565b6000611eb5611a7f565b9050611ec18282611e7a565b919050565b600067ffffffffffffffff821115611ee157611ee0611e4b565b5b611eea82611b94565b9050602081019050919050565b82818337600083830152505050565b6000611f19611f1484611ec6565b611eab565b905082815260208101848484011115611f3557611f34611e46565b5b611f40848285611ef7565b509392505050565b600082601f830112611f5d57611f5c611e41565b5b8135611f6d848260208601611f06565b91505092915050565b60008060008060808587031215611f9057611f8f611a89565b5b6000611f9e87828801611cd6565b9450506020611faf87828801611cd6565b9350506040611fc087828801611c21565b925050606085013567ffffffffffffffff811115611fe157611fe0611a8e565b5b611fed87828801611f48565b91505092959194509250565b600080604083850312156120105761200f611a89565b5b600061201e85828601611cd6565b925050602061202f85828601611cd6565b9150509250929050565b7f4e487b7100000000000000000000000000000000000000000000000000000000600052602260045260246000fd5b6000600282049050600182168061208057607f821691505b60208210810361209357612092612039565b5b50919050565b7f4552524f52203200000000000000000000000000000000000000000000000000600082015250565b60006120cf600783611b59565b91506120da82612099565b602082019050919050565b600060208201905081810360008301526120fe816120c2565b9050919050565b7f4552524f52203300000000000000000000000000000000000000000000000000600082015250565b600061213b600783611b59565b915061214682612105565b602082019050919050565b6000602082019050818103600083015261216a8161212e565b9050919050565b7f4e487b7100000000000000000000000000000000000000000000000000000000600052601160045260246000fd5b60006121ab82611c00565b91506121b683611c00565b92508282019050808211156121ce576121cd612171565b5b92915050565b7f4552524f52203100000000000000000000000000000000000000000000000000600082015250565b600061220a600783611b59565b9150612215826121d4565b602082019050919050565b60006020820190508181036000830152612239816121fd565b9050919050565b600081905092915050565b600061225682611b4e565b6122608185612240565b9350612270818560208601611b6a565b80840191505092915050565b6000612288828561224b565b9150612294828461224b565b91508190509392505050565b7f4552524f52203132000000000000000000000000000000000000000000000000600082015250565b60006122d6600883611b59565b91506122e1826122a0565b602082019050919050565b60006020820190508181036000830152612305816122c9565b9050919050565b60006060820190506123216000830186611c95565b61232e6020830185611c95565b81810360408301526123408184611ba5565b9050949350505050565b7f4552524f52203131000000000000000000000000000000000000000000000000600082015250565b6000612380600883611b59565b915061238b8261234a565b602082019050919050565b600060208201905081810360008301526123af81612373565b9050919050565b600081519050919050565b600082825260208201905092915050565b60006123dd826123b6565b6123e781856123c1565b93506123f7818560208601611b6a565b61240081611b94565b840191505092915050565b60006080820190506124206000830187611c95565b61242d6020830186611c95565b61243a6040830185611d7e565b818103606083015261244c81846123d2565b905095945050505050565b60008151905061246681611abf565b92915050565b60006020828403121561248257612481611a89565b5b600061249084828501612457565b91505092915050565b7f4552524f52203134000000000000000000000000000000000000000000000000600082015250565b60006124cf600883611b59565b91506124da82612499565b602082019050919050565b600060208201905081810360008301526124fe816124c2565b9050919050565b7f4552524f52203133000000000000000000000000000000000000000000000000600082015250565b600061253b600883611b59565b915061254682612505565b602082019050919050565b6000602082019050818103600083015261256a8161252e565b9050919050565b7f4e487b7100000000000000000000000000000000000000000000000000000000600052601260045260246000fd5b600060408201905081810360008301526125ba8185611ba5565b90506125c96020830184611c95565b9392505050565b7f4552524f52203130000000000000000000000000000000000000000000000000600082015250565b6000612606600883611b59565b9150612611826125d0565b602082019050919050565b60006020820190508181036000830152612635816125f9565b9050919050565b7f4552524f52203400000000000000000000000000000000000000000000000000600082015250565b6000612672600783611b59565b915061267d8261263c565b602082019050919050565b600060208201905081810360008301526126a181612665565b9050919050565b7f4552524f52203500000000000000000000000000000000000000000000000000600082015250565b60006126de600783611b59565b91506126e9826126a8565b602082019050919050565b6000602082019050818103600083015261270d816126d1565b9050919050565b6000604082019050818103600083015261272e8185611ba5565b905081810360208301526127428184611ba5565b90509392505050565b7f4552524f52203600000000000000000000000000000000000000000000000000600082015250565b6000612781600783611b59565b915061278c8261274b565b602082019050919050565b600060208201905081810360008301526127b081612774565b9050919050565b7f4e487b7100000000000000000000000000000000000000000000000000000000600052605160045260246000fdfe687474703a2f2f3132372e302e302e313a383038302f697066732f516d5646714368577859736a7169444a51374a485855353963484364424b55726253377a614370744863334539452fa2646970667358221220fe5aec9d3972cb410939c88aa571572de19ee4dd49ca0bf3213d794ac8fd520264736f6c63430008180033",
  "devdoc": {
    "errors": {
      "ERC721IncorrectOwner(address,uint256,address)": [
        {
          "details": "Indicates an error related to the ownership over a particular token. Used in transfers.",
          "params": {
            "owner": "Address of the current owner of a token.",
            "sender": "Address whose tokens are being transferred.",
            "tokenId": "Identifier number of a token."
          }
        }
      ],
      "ERC721InsufficientApproval(address,uint256)": [
        {
          "details": "Indicates a failure with the `operator`s approval. Used in transfers.",
          "params": {
            "operator": "Address that may be allowed to operate on tokens without being their owner.",
            "tokenId": "Identifier number of a token."
          }
        }
      ],
      "ERC721InvalidApprover(address)": [
        {
          "details": "Indicates a failure with the `approver` of a token to be approved. Used in approvals.",
          "params": {
            "approver": "Address initiating an approval operation."
          }
        }
      ],
      "ERC721InvalidOperator(address)": [
        {
          "details": "Indicates a failure with the `operator` to be approved. Used in approvals.",
          "params": {
            "operator": "Address that may be allowed to operate on tokens without being their owner."
          }
        }
      ],
      "ERC721InvalidOwner(address)": [
        {
          "details": "Indicates that an address can't be an owner. For example, `address(0)` is a forbidden owner in EIP-20. Used in balance queries.",
          "params": {
            "owner": "Address of the current owner of a token."
          }
        }
      ],
      "ERC721InvalidReceiver(address)": [
        {
          "details": "Indicates a failure with the token `receiver`. Used in transfers.",
          "params": {
            "receiver": "Address to which tokens are being transferred."
          }
        }
      ],
      "ERC721InvalidSender(address)": [
        {
          "details": "Indicates a failure with the token `sender`. Used in transfers.",
          "params": {
            "sender": "Address whose tokens are being transferred."
          }
        }
      ],
      "ERC721NonexistentToken(uint256)": [
        {
          "details": "Indicates a `tokenId` whose `owner` is the zero address.",
          "params": {
            "tokenId": "Identifier number of a token."
          }
        }
      ]
    },
    "events": {
      "Approval(address,address,uint256)": {
        "details": "Emitted when `owner` enables `approved` to manage the `tokenId` token."
      },
      "ApprovalForAll(address,address,bool)": {
        "details": "Emitted when `owner` enables or disables (`approved`) `operator` to manage all of its assets."
      },
      "Transfer(address,address,uint256)": {
        "details": "Emitted when `tokenId` token is transferred from `from` to `to`."
      }
    },
    "kind": "dev",
    "methods": {
      "approve(address,uint256)": {
        "details": "See {IERC721-approve}."
      },
      "balanceOf(address)": {
        "details": "See {IERC721-balanceOf}."
      },
      "getApproved(uint256)": {
        "details": "See {IERC721-getApproved}."
      },
      "isApprovedForAll(address,address)": {
        "details": "See {IERC721-isApprovedForAll}."
      },
      "name()": {
        "details": "See {IERC721Metadata-name}."
      },
      "ownerOf(uint256)": {
        "details": "See {IERC721-ownerOf}."
      },
      "safeTransferFrom(address,address,uint256)": {
        "details": "See {IERC721-safeTransferFrom}."
      },
      "safeTransferFrom(address,address,uint256,bytes)": {
        "details": "See {IERC721-safeTransferFrom}."
      },
      "setApprovalForAll(address,bool)": {
        "details": "See {IERC721-setApprovalForAll}."
      },
      "supportsInterface(bytes4)": {
        "details": "See {IERC165-supportsInterface}."
      },
      "symbol()": {
        "details": "See {IERC721Metadata-symbol}."
      },
      "tokenURI(uint256)": {
        "details": "See {IERC721Metadata-tokenURI}."
      },
      "transferFrom(address,address,uint256)": {
        "details": "See {IERC721-transferFrom}."
      }
    },
    "version": 1
  },
  "userdoc": {
    "kind": "user",
    "methods": {},
    "version": 1
  },
  "storageLayout": {
    "storage": [
      {
        "astId": 170,
        "contract": "contracts/BasicNFT.sol:BasicNFT",
        "label": "_name",
        "offset": 0,
        "slot": "0",
        "type": "t_string_storage"
      },
      {
        "astId": 172,
        "contract": "contracts/BasicNFT.sol:BasicNFT",
        "label": "_symbol",
        "offset": 0,
        "slot": "1",
        "type": "t_string_storage"
      },
      {
        "astId": 176,
        "contract": "contracts/BasicNFT.sol:BasicNFT",
        "label": "_owners",
        "offset": 0,
        "slot": "2",
        "type": "t_mapping(t_uint256,t_address)"
      },
      {
        "astId": 180,
        "contract": "contracts/BasicNFT.sol:BasicNFT",
        "label": "_balances",
        "offset": 0,
        "slot": "3",
        "type": "t_mapping(t_address,t_uint256)"
      },
      {
        "astId": 184,
        "contract": "contracts/BasicNFT.sol:BasicNFT",
        "label": "_tokenApprovals",
        "offset": 0,
        "slot": "4",
        "type": "t_mapping(t_uint256,t_address)"
      },
      {
        "astId": 190,
        "contract": "contracts/BasicNFT.sol:BasicNFT",
        "label": "_operatorApprovals",
        "offset": 0,
        "slot": "5",
        "type": "t_mapping(t_address,t_mapping(t_address,t_bool))"
      },
      {
        "astId": 2815,
        "contract": "contracts/BasicNFT.sol:BasicNFT",
        "label": "tokenCounter",
        "offset": 0,
        "slot": "6",
        "type": "t_uint256"
      }
    ],
    "types": {
      "t_address": {
        "encoding": "inplace",
        "label": "address",
        "numberOfBytes": "20"
      },
      "t_bool": {
        "encoding": "inplace",
        "label": "bool",
        "numberOfBytes": "1"
      },
      "t_mapping(t_address,t_bool)": {
        "encoding": "mapping",
        "key": "t_address",
        "label": "mapping(address => bool)",
        "numberOfBytes": "32",
        "value": "t_bool"
      },
      "t_mapping(t_address,t_mapping(t_address,t_bool))": {
        "encoding": "mapping",
        "key": "t_address",
        "label": "mapping(address => mapping(address => bool))",
        "numberOfBytes": "32",
        "value": "t_mapping(t_address,t_bool)"
      },
      "t_mapping(t_address,t_uint256)": {
        "encoding": "mapping",
        "key": "t_address",
        "label": "mapping(address => uint256)",
        "numberOfBytes": "32",
        "value": "t_uint256"
      },
      "t_mapping(t_uint256,t_address)": {
        "encoding": "mapping",
        "key": "t_uint256",
        "label": "mapping(uint256 => address)",
        "numberOfBytes": "32",
        "value": "t_address"
      },
      "t_string_storage": {
        "encoding": "bytes",
        "label": "string",
        "numberOfBytes": "32"
      },
      "t_uint256": {
        "encoding": "inplace",
        "label": "uint256",
        "numberOfBytes": "32"
      }
    }
  }
}